:020000040800F2
:100000002004002005010008E50800081708000882
:100010001B080008CB050008B91800080000000004
:100020000000000000000000000000005B0F00085E
:100030009506000800000000150E00086D1100086C
:100040001F0100081F0100081F0100081F01000810
:100050001F0100081F0100081F0100081F01000800
:100060001F0100081F0100081F0100081F010008F0
:100070001F0100081F0100081F0100081F010008E0
:100080001F0100081F0100081F0100081F010008D0
:100090001F0100081F0100081F0100081F010008C0
:1000A0001F0100081F0100081F0100081F010008B0
:1000B0001F0100081F0100081F0100081F010008A0
:1000C0001F0100081F0100081F0100081F01000890
:1000D0001F0100081D1500081F0100081F0100086E
:1000E0001F0100081F0100081F010008DFF810D0E1
:1000F00000F03AFA00480047DD180008AFF300802E
:10010000200400200648804706480047FEE7FEE737
:10011000FEE7FEE7FEE7FEE7FEE7FEE7FEE7FEE7B7
:1001200071110008ED000008F0B480EA0102D40F5C
:100130004200B2EB410F02D20246084611464A0085
:1001400042D0C30DDDB2C1F3C752AD1A202D35DA4E
:10015000C1F3160141F4000204B15242C5F1200678
:1001600002FA06F12A411044B3EBD05F23D0C4B1A8
:10017000012DA0EBC35009DCF0BC4FF0004202EAB5
:10018000C352DBB200F5000000F063B9400000F19B
:10019000807000EBC350A0F1807040EAD17049003C
:1001A00009E0490841EAC071A0EBC35000F5000026
:1001B000400800EBC350F0BC00F042B9614201229C
:1001C00002EB4101001BF6E7F0BC704781F00041F3
:1001D000AAE780F00040A7E780EA010210B502F02C
:1001E0000043400022D04A001FD0010E01EB1261F3
:1001F000C0F35600C2F3560240F4000042F400027D
:10020000A0FB022000047F39140400D0401C50EAF7
:10021000124001D44000491EC2B20C0604EBD010BB
:10022000401C4008802A02D003E0002010BD20F0CE
:100230000100002900DA0020184310BD30B480EA24
:10024000010202F0004530F0004221F0004013D0DE
:1002500090B1C30DD40DC2F31601C0F31600E41A19
:1002600041F4000140F400027D34914201D3641C4A
:1002700000E04900002C02DA30BC002070474FF447
:1002800000000023914201D3891A034340084FEA3A
:100290004101F7D151B1914202D14FF0004105E047
:1002A00002D24FF0010101E06FF0010103EBC450F5
:1002B000284430BC00F0C4B82DE9FE4F81EA0304A5
:1002C00004F0004421F0004100944FF0000B23F0B3
:1002D000004350EA01045ED052EA03045BD0C3F34A
:1002E0000A54C1F30A552C44A4F2F3340194A0FB40
:1002F0000254C1F3130141F48011C3F3130343F417
:10030000801301FB024400FB034E840A970A44EA6F
:10031000815447EA8357A4FB076802958D0A05FBC1
:1003200007854FEA932C04FB0C542705029D4FEAE6
:10033000065847EA1637B5EB08056EEB070C870E33
:10034000920E47EA811742EA8312A7FB0201B6EB3D
:100350000B0164EB00042B0D43EA0C335E1844EBF5
:100360001C50DA465146E7FB0201C5F313044FEA7D
:100370000B3343EA14534FEA0432019C43EA060369
:10038000A4F10C040294009CCDE900B400F09EF8A6
:1003900003B0BDE8F08F00200146F9E70EB540F24A
:1003A000334102910021CDE900110A460B4600F0CD
:1003B0008DF803B000BD20F00040C10DC0F3160061
:1003C00040F400007F2901DA00207047962903DC01
:1003D000C1F19601C840704796398840704701F0D6
:1003E000004330B421F0004150EA010206D00A0D6A
:1003F000A2F56072C1F31301002A02DC30BC0020B8
:100400007047440F44EAC104C100E01830BC00EB5F
:10041000C25000F015B80000002801DBC0F1004018
:10042000002901DBC1F1004181427047002801DB56
:10043000C0F10040002901DBC1F100418842704752
:100440000029A8BF7047401C490008BF20F00100E8
:10045000704710B4B0FA80FC00FA0CF050EA0104C6
:1004600004BF10BC704749B1CCF1200421FA04F458
:1004700011FA0CF118BF012121430843A3EB0C0131
:10048000CB1D4FEA00614FEA102042BF002010BC94
:10049000704700EBC35010440029A4BF10BC704744
:1004A000401C490008BF20F0010010BC704710B587
:1004B000141E73F1000408DA401C41F10001921887
:1004C0005B411A4301D120F0010010BD2DE9F04D30
:1004D00092469B4611B1B1FA81F202E0B0FA80F285
:1004E0002032904600F052F804460F4640EA0A00D7
:1004F00041EA0B0153465A46084313D0114653EACA
:10050000010019D0C8F14002504600F04EF80546EF
:100510000E4650465946424600F038F8084305D08A
:10052000012004E020463946BDE8F08D0020054357
:1005300046EAE0762C4337430A986305E40AA0EBC9
:1005400008000022FD0A44EA47540A3002D5002080
:100550000146E9E7010510196941DDE9084500197F
:100560006941BDE8F04DA2E7064C074D06E0E068A2
:1005700040F0010394E8070098471034AC42F6D3EA
:10058000FFF7B8FD6C2000088C200008202A04DB4F
:10059000203A00FA02F1002070479140C2F1200396
:1005A00020FA03F3194390407047202A04DB203AD5
:1005B00021FA02F00021704721FA02F3D040C2F183
:1005C0002002914008431946704700BFFEE7000033
:1005D00008B50121082000F02FFC10208DF8030041
:1005E0000120ADF8000003208DF8020069460448A0
:1005F00000F074F80121024800F006F908BD00007F
:10060000000C014010B50C48007808B9012000E04A
:1006100000200949087008460078012803D101210B
:10062000064800F0EFF80448007818B901210348A3
:1006300000F0EAF810BD000016000020000C014098
:1006400010B5322000F00EF9322000F02BF910BD69
:1006500010B56FF0310000F005F96FF0310000F0D7
:1006600021F910BD10B5322000F0FCF8002000F098
:1006700019F910BD10B5002000F0F4F8322000F098
:1006800011F910BD10B5002000F0ECF8002000F0CA
:1006900009F910BD704700B5034603E04FF47A70C6
:1006A00000F005F8181EA3F10103F7D100BD00EB1F
:1006B000C001C9004FF0E022516100219161052184
:1006C000116100BF4FF0E021096901F48031002978
:1006D000F8D004214FF0E022116170472DE9F0417C
:1006E000024600250026002000230024002791F860
:1006F00003C00CF00F0591F803C00CF0100CBCF116
:10070000000F03D091F802C04CEA050591F800C033
:10071000BCF1000F31D0146800202BE04FF0010C29
:100720000CFA00F3B1F800C00CEA03069E4220D197
:1007300083004FF00F0C0CFA03F7BC4305FA03FCDF
:100740004CEA040491F803C0BCF1280F06D14FF025
:10075000010C0CFA00FCC2F814C00AE091F803C0C6
:10076000BCF1480F05D14FF0010C0CFA00FCC2F8A7
:1007700010C0401C0828D1D31460B1F800C0BCF1EF
:10078000FF0F34DD546800202EE000F1080C4FF01C
:10079000010808FA0CF3B1F800C00CEA03069E4207
:1007A00021D183004FF00F0C0CFA03F7BC4305FA7C
:1007B00003FC4CEA040491F803C0BCF1280F05D1F6
:1007C00000F1080C08FA0CF8C2F8148091F803C084
:1007D000BCF1480F07D100F1080C4FF0010808FAEE
:1007E0000CF8C2F81080401C0828CED35460BDE835
:1007F000F0810246002093680B400BB1012000E01D
:100800000020704741617047016170470AB1016182
:1008100000E04161704700BFFEE700BFFEE7000057
:1008200008B50121042000F007FB10208DF803001B
:100830003C20ADF8000003208DF80200694608480E
:10084000FFF74CFF3C210648FFF7DCFF00F02AFAD7
:10085000002000F007F8002000F024F808BD000098
:100860000008014010B50446002C0BDB04210C48A5
:10087000FFF7CAFF08210A48FFF7C4FFA0B200F043
:10088000B9FA0BE008210648FFF7BEFF042104482F
:10089000FFF7B8FF614288B200F0ACFA10BD00006B
:1008A0000008014010B50446002C0BDB10210C4859
:1008B000FFF7AAFF20210A48FFF7A4FFA0B200F02B
:1008C000A1FA0BE020210648FFF79EFF1021044803
:1008D000FFF798FF614288B200F094FA10BD000063
:1008E000000801407047000070B5002100230F226E
:1008F000C47804B3154C246804F4E064C4F5E064DF
:10090000210AC1F10403CA40447804FA03F184784F
:100910001440214309010E4C0678A155047804F0D7
:100920001F050124AC4005786D11AD0005F1E025EF
:10093000C5F8004109E0047804F01F050124AC402B
:10094000044D0678761145F8264070BD0CED00E0A8
:1009500000E400E080E100E002490143024A116046
:10096000704700000000FA050CED00E070B50024AF
:100970000EE00021204600F0F4F8002504E00020FD
:1009800000F080F9681CC5B2802DF8DB601CC4B291
:10099000082CEEDB70BD000008B50121082000F036
:1009A0004BFA14208DF8030003208DF802004FF459
:1009B0008070ADF8000069460A48FFF78FFE4FF4DB
:1009C0000070ADF8000069460648FFF787FE012277
:1009D00011020448FFF71AFF012251020148FFF7F4
:1009E00015FF08BD000C014070B50546002419E054
:1009F00080202041284008B1012000E0002002466C
:100A00004FF400710E48FFF701FF012211020C485C
:100A1000FFF7FCFE00224FF480710948FFF7F6FE55
:100A2000601CC4B2082CE3DB012211020448FFF76A
:100A3000EDFE00224FF480710148FFF7E7FE70BD24
:100A4000000C014010B5012251020A48FFF7DEFEFA
:100A5000012211020748FFF7D9FE00224FF400716E
:100A60000448FFF7D3FE00224FF480710148FFF7DE
:100A7000CDFE10BD000C014010B500224FF40071F6
:100A80000648FFF7C3FE012211020448FFF7BEFE2D
:100A9000012251020148FFF7B9FE10BD000C0140D0
:100AA00070B5002406E0002500E06D1CB5F57A7FE6
:100AB000FBD3641CB4F57A7FF5D3FFF76DFFAE204E
:100AC00000F0D0F8D52000F0CDF8802000F0CAF872
:100AD000A82000F0C7F83F2000F0C4F8D32000F0B1
:100AE000C1F8002000F0BEF8402000F0BBF8A120C3
:100AF00000F0B8F8C82000F0B5F8DA2000F0B2F83D
:100B0000122000F0AFF8812000F0ACF8CF2000F008
:100B1000A9F8D92000F0A6F8F12000F0A3F8DB2016
:100B200000F0A0F8302000F09DF8A42000F09AF822
:100B3000A62000F097F88D2000F094F8142000F023
:100B400091F8AF2000F08EF8FFF710FF70BD10B5E0
:100B50000246012000E050430B1EA1F10101FAD131
:100B600010BD70B505460C4645F0B00000F07AF8AF
:100B7000102141EA141000F075F804F00F0000F0A5
:100B800071F870BD2DE9F04105460E461746721EFC
:100B9000D206110E6A1E5206100EFFF7E2FF002465
:100BA00009E0A7F12001134A02EB0111085D00F0F2
:100BB00069F8601CC4B2082CF3DB721ED206110E59
:100BC0006A1E012303EB4202D0B2FFF7CAFF0024E2
:100BD0000BE0A7F12001074A02EB011204F1080122
:100BE000505C00F04FF8601CC4B2082CF1DBBDE88B
:100BF000F08100007C1A00082DE9F04780460E467F
:100C000017461D46002415E0281B411E0A20FFF749
:100C10009EFFB7FBF0F00A21B0FBF1F201FB1200DE
:100C200000F130093019C1B24A464046FFF7AAFF29
:100C3000601CC4B2AC42E7DBBDE8F0872DE9F041AF
:100C400007460E461546002407E02A5D3019C1B25A
:100C50003846FFF797FF601CC4B2285D0028F4D126
:100C6000BDE8F08110B50446FFF7ECFE7820FFF7F1
:100C7000BBFE0020FFF7B8FE2046FFF7B5FEFFF7EA
:100C8000FBFE10BD10B50446FFF7DCFE7820FFF731
:100C9000ABFE4020FFF7A8FE2046FFF7A5FEFFF7BA
:100CA000EBFE10BD00B589B00121084600F0B4F894
:100CB0000121042000F0C0F818208DF82300032043
:100CC000ADF820008DF8220008A91C48FFF706FDAA
:100CD0004FF0804000F01CFB0020ADF81A00ADF88A
:100CE00016006320ADF818004720ADF8140000206E
:100CF0008DF81C0005A94FF0804000F0BDFB01A855
:100D000000F0AAFB6020ADF804000020ADF80C0054
:100D10000120ADF806000020ADF80A0001A94FF04F
:100D2000804000F0FBFA01A94FF0804000F042FB48
:100D30000121880700F0CEFA09B000BD000801408B
:100D400000B589B00121C80200F076F80121042025
:100D500000F072F818208DF823004FF48070ADF881
:100D6000200003208DF8220008A91B48FFF7B6FCDD
:100D70001A4800F0CDFA0020ADF81A00ADF81600C0
:100D800044F61F60ADF818004720ADF814000020AD
:100D90008DF81C0005A9114800F06EFB01A800F0B9
:100DA0005BFB6020ADF804000020ADF80C000120D2
:100DB000ADF806000020ADF80A0001A9074800F0D0
:100DC000ADFA0121054800F091FA0121034800F035
:100DD00081FA09B000BD000000080140002C01406C
:100DE00010B504462146024800F040FB10BD00004B
:100DF000002C014010B5044621464FF0804000F021
:100E000035FB10BD10B5044621464FF0804000F080
:100E10002FFB10BD7047000029B1064AD26902437A
:100E2000044BDA6104E0034AD2698243014BDA6180
:100E3000704700000010024029B1064A926902433F
:100E4000044B9A6104E0034A92698243014B9A6120
:100E5000704700000010024030B50021002200243D
:100E600000232D4D6D6805F00C0121B1042905D03A
:100E7000082923D105E0294D056022E0274D0560B2
:100E80001FE0254D6D6805F47012234D6D6805F463
:100E90008034022505EB92421CB9214D5543056073
:100EA0000BE01D4D6D6805F400351DB11C4D55431B
:100EB000056002E0194D5543056002E0174D0560DD
:100EC00000BF00BF144D6D6805F0F0010909154D14
:100ED0006B5C0568DD4045600F4D6D6805F4E061B1
:100EE000090A104D6B5C4568DD4085600A4D6D68F0
:100EF00005F46051C90A0B4D6B5C4568DD40C56067
:100F0000054D6D6805F44041890B074D6B5CC56864
:100F1000B5FBF3F5056130BD0010024000127A0008
:100F200000093D00000000201000002010B504461C
:100F3000112C01D1FFF784FB222C01D1FFF788FB94
:100F4000332C01D1FFF78EFB442C01D1FFF792FB2C
:100F5000552C01D1FFF796FB10BD70470148007872
:100F600070470000140000200448007820B10020E1
:100F700002490870012070470020FCE7150000209E
:100F800000B587B001218803FFF756FF0121042037
:100F9000FFF752FF18208DF81B004FF40070ADF8DA
:100FA000180003208DF81A0006A92148FFF796FBC8
:100FB00048208DF81B004FF48060ADF81800032026
:100FC0008DF81A0006A91A48FFF788FB4FF416504F
:100FD00002900020ADF814000420ADF812000020AB
:100FE000ADF81000ADF80E00ADF80C0002A91148E4
:100FF00000F0FEFA012240F225510E4800F0D2FA2C
:101000004FF4A060FFF7A8FC25208DF80400012014
:101010008DF807008DF805008DF8060001A8FFF790
:1010200063FC0121034800F0A4FA07B000BD0000F2
:10103000000801400038014010B5FFF781FE002094
:1010400000F002F810BD00002DE9F04104460A4905
:101050002046FFF7F3F880460849FFF7BDF807463A
:101060000749FFF761F80646FFF7A5F985B228465C
:10107000FFF7B6FEBDE8F081000034430000FA44FB
:101080000080BB4410B500F001F810BD0CB5002085
:10109000019000903348006840F480303149086086
:1010A00000BF3048006800F4003000900198401CF8
:1010B0000190009818B90198B0F5A06FF1D12948B6
:1010C000006800F4003010B10120009001E0002021
:1010D00000900098012843D12348006840F0100098
:1010E000214908600846006820F0030008600846AF
:1010F000006840F0020008601A48406819494860DA
:101100000846406848600846406840F4806048608F
:101110000846406820F47C1048600846406840F467
:10112000E81048600846006840F08070086000BF22
:101130000C48006800F000700028F9D009484068A9
:1011400020F00300074948600846406840F002006C
:10115000486000BF0348406800F00C000828F9D13F
:101160000CBD00000010024000200240704700004B
:1011700010B51348006840F00100114908600846A6
:101180004068104908400E494860084600680E490A
:1011900008400B4908600846006820F48020086079
:1011A0000846406820F4FE0048604FF41F00886045
:1011B000FFF768FF4FF000600449086010BD0000B1
:1011C000001002400000FFF8FFFFF6FE08ED00E00F
:1011D00010B54FF480410348FFF70BFB044620464F
:1011E00010BD0000000C014010B54FF480510348C1
:1011F000FFF7FFFA0446204610BD0000000C014036
:1012000010B54FF400510348FFF7F3FA04462046A7
:1012100010BD0000000C014010B54FF40041034820
:10122000FFF7E7FA0446204610BD0000000C01401D
:101230002DE9F041FFF7CCFF0446FFF7D5FF064646
:10124000FFF7DEFF0746FFF7E7FF0546012E05D152
:10125000012F03D114B90DB9FFF7F2F9012C07D111
:1012600035B93220FFF7FEFA6FF01800FFF71AFBCE
:1012700044B9012D06D16FF01800FFF7F3FA3220C0
:10128000FFF710FB14B10EB107B13DB914B90EB997
:1012900007B90DB1012000E0002008B9FFF7F2F90D
:1012A0000123224608210420FFF7A6FC0123324631
:1012B0000A210420FFF7A0FC01233A460C21042058
:1012C000FFF79AFC01232A460E210420FFF794FC25
:1012D000BDE8F08121B1028842F00102028004E001
:1012E00002884FF6FE731A400280704731B1B0F8A1
:1012F000442042F40042A0F8442005E0B0F8442025
:10130000C2F30E02A0F8442070470146888C704753
:1013100001894FF6F87211400181704770B50024C1
:1013200000220023058C4FF6FE7635400584028CA2
:101330008388048B4FF68F752C40B51E2C400D888A
:101340002C43751E2A400D892A434D882A43144D8B
:10135000A8420BD0134DA84208D0134DA84205D087
:10136000124DA84202D0124DA84213D14FF6F77584
:101370002A404D892A434FF6FB752A408D882A431F
:101380004FF6FF652B404FF6FF552B408D892B43C1
:10139000CD892B4383800483CD888586028470BDEC
:1013A000002C014000340140004001400044014055
:1013B0000048014070B5002400220023058C4FF640
:1013C000EF7635400584028C8388048B48F6FF75E0
:1013D0002C404FF6FF452C400D884FF6FF7606EA6D
:1013E00005252C434FF6DF752A400D8906EA0515C1
:1013F0002A434D8806EA05152A43154DA84202D016
:10140000144DA8421DD14FF67F752A404D894FF6E5
:10141000FF7606EA05152A434FF6BF752A408D88E8
:1014200006EA05152A434FF6FF352B404FF2FF75AC
:101430002B408D8906EA85052B43CD8906EA850573
:101440002B4383800483CD880587028470BD000010
:10145000002C014000340140002101804180818046
:10146000C180018141818181C1817047818670473E
:101470000187704781847047002202881D4B984283
:101480000ED01D4B98420BD0B0F1804F08D01B4BB3
:10149000984205D01A4B984202D01A4B984204D178
:1014A0004FF68F731A404B881A43174B984207D058
:1014B000164B984204D04FF6FF431A40CB881A438C
:1014C00002808B8883850B8803850A4B98420BD05A
:1014D000094B984208D00E4B984205D00D4B9842CC
:1014E00002D00D4B984201D10B7A038601238382EF
:1014F00070470000002C014000340140000400400F
:1015000000080040000C00400010004000140040A3
:1015100000400140004401400048014010B5202136
:10152000094800F032F8012807D1074800F0CCF84C
:101530000649087001200649087040F2255102480A
:1015400000F008F810BD0000003801401400002031
:101550001500002010B50022002340F66A14A142B5
:1015600000D100BF0A1201249440A3B2DC430480DE
:1015700010BD21B1828942F40052828104E0828947
:101580004DF6FF731A408281704702460020B1F584
:10159000007F00D100BF13880B400BB1012000E099
:1015A00000207047F0B503460024002600250020E7
:1015B00040F66A17B94200D100BF1846C1F3421481
:1015C00001F01F06012707FA06F5012C01D10C30A6
:1015D00004E0022C01D1103000E014301AB1076889
:1015E0002F43076002E00768AF430760F0BD0000CB
:1015F0002DE9F04786B005460E460024A24600BFFE
:10160000A1460027B08900B100BF2F462C8A4CF6B6
:10161000FF700440F08804432C82AC894EF6F3102E
:101620000440B08831890843718908430443AC8180
:10163000AC8A4FF6FF400440B0890443AC8201A855
:10164000FFF70AFC1F48874202D1DDF810A001E035
:10165000DDF80CA0A88900F4004040B10AEBCA00F4
:1016600000EB0A1031684900B0FBF1F807E00AEB23
:10167000CA0000EB0A1031688900B0FBF1F8642061
:10168000B8FBF0F004012009642101FB1089A8894E
:1016900000F4004040B1322000EBC900B0FBF1F093
:1016A00000F00700044308E0322000EB0910642139
:1016B000B0FBF1F000F00F0004432C8106B0BDE850
:1016C000F08700000038014001468888C0F3080018
:1016D000704700002DE9F0474FF400611D48FFF707
:1016E00093F81420FEF7E3FF4FF400611948FFF769
:1016F00089F800BF4FF480611648FFF77AF8002898
:10170000F8D001211448FFF7E5FD00BF4FF48061D8
:101710001048FFF76EF80128F8D000210E48FFF7B7
:10172000D9FD0D48FFF7F1FD814600210A48FFF77A
:10173000A1FE4846FEF732FE07464FF03332074B14
:10174000FEF7BAFD0546FEF74AFE04462046BDE810
:10175000F0870000000C0140000400403333FB3FE1
:101760001FB501210820FFF767FB01210220FFF7C9
:1017700053FB10208DF80F00C001ADF80C000320C2
:101780008DF80E0003A91648FEF7A8FF48208DF833
:101790000F004FF48060ADF80C0003208DF80E00B0
:1017A00003A90F48FEF79AFF0E48FFF7B1FD00208E
:1017B000ADF80600ADF8020042F20F70ADF804007B
:1017C00041F61F40ADF8000000208DF80800694682
:1017D0000448FFF751FE00210248FFF77BFD1FBDC3
:1017E000000C01400004004070B505460C464FF067
:1017F00080412846FEF71AFE54D82C492846FEF7A9
:101800000BFE4FD8FEF73EFF2948FFF71DFC4FF4B3
:10181000FA70FEF740FFFFF75DFF05464FF4FA70E0
:10182000FEF739FF4FF080412846FEF7FFFD2FD825
:101830001E492846FEF7F0FD2AD81E48FFF704FC93
:101840004FF4FA70FEF727FFFFF744FF05464FF409
:10185000FA70FEF720FF4FF080412846FEF7E6FDC4
:101860000CD812492846FEF7D7FD07D80020FFF70D
:10187000EBFBFEF707FF0420207015E00020FFF7C8
:10188000E3FBFEF7F7FE40F6FC00FEF704FF0BE07B
:101890000020FFF7D9FBFEF7E5FE40F6FC00FEF75F
:1018A000FAFE01E0FEF7CCFE70BD00000000A04192
:1018B0000000B4420000B4C200BFFEE702E008C866
:1018C000121F08C1002AFAD170477047002001E0BA
:1018D00001C1121F002AFBD170470000FFF7E0F89A
:1018E000FFF74EFBFFF7A8FBFFF73AFFFEF798FF65
:1018F000FEF76EFE47A201210846FFF79FF948A2B6
:1019000001210220FFF79AF947A208210220FFF7E0
:1019100095F948A201210320FFF790F947A2012180
:101920000420FFF78BF947A208210420FFF786F96E
:101930006EE0FFF7CFFE4549086008460068FEF7F5
:101940003AFD04460423224608210320FFF754F9F8
:101950006420FEF7A0FEFFF707FB30B3FFF7FEFAA7
:101960003B49087008460078DD2801D1FEF74AFEA1
:1019700037480078AA2806D0BB2808D0CC280AD03F
:10198000FF2810D10BE00120324908700CE0022042
:101990003049087008E003202E49087004E0042054
:1019A0002C49087000E000BF00BF2A4800780128D9
:1019B00008D129A208210220FFF740F92448007825
:1019C000FFF7B4FA23480078022808D125A208219D
:1019D000FFF734F91F491D480068FFF705FF1D4850
:1019E0000078032806D122A208210220FFF726F959
:1019F000FFF71EFC17480078042809D10AA2082125
:101A00000220FFF71BF9FEF73DFE00201149087088
:101A10008FE700004D794361725F323200000000B1
:101A20005278446174613A005265616479696E6705
:101A3000000000004C656E6774683A0054435254CD
:101A4000464C3A0030203020302030001C0000206E
:101A5000190000201800002052656D6F7465202069
:101A60000000000041766F69642020200000000023
:101A700046696E6420202020000000000000000065
:101A8000000000000000000000000000000000F85E
:101A900000000000000000333000000000100C06C1
:101AA000100C0600000000000000000040C078405C
:101AB000C0784000043F04043F040400007088FC28
:101AC00008300000001820FF211E0000F008F00080
:101AD000E018000000211C031E211E0000F00888F1
:101AE000700000001E2123241927211010160E005B
:101AF000000000000000000000000000000000E006
:101B0000180402000000000718204000000204181A
:101B1000E00000000040201807000000404080F076
:101B2000804040000202010F01020200000000F0AC
:101B3000000000000101011F010101000000000080
:101B40000000000080B070000000000000000000F5
:101B5000000000000001010101010101000000007E
:101B60000000000000303000000000000000000015
:101B700080601804006018060100000000E01008F2
:101B80000810E000000F102020100F00001010F8C7
:101B9000000000000020203F202000000070080806
:101BA0000888700000302824222130000030088886
:101BB000884830000018202020110E000000C020AE
:101BC00010F8000000070424243F240000F80888CF
:101BD000880808000019212020110E0000E010885C
:101BE00088180000000F112020110E00003808088E
:101BF000C83808000000003F00000000007088089E
:101C000008887000001C222121221C0000E010081E
:101C10000810E0000000312222110F00000000C077
:101C2000C000000000000030300000000000008014
:101C30000000000000008060000000000000804004
:101C4000201008000001020408102000404040401D
:101C50004040400004040404040404000008102070
:101C600040800000002010080402010000704808B5
:101C70000808F0000000003036010000C030C8281D
:101C8000E810E0000718272423140B000000C038D8
:101C9000E0000000203C23020227382008F8888852
:101CA00088700000203F202020110E00C03008085E
:101CB00008083800071820202010080008F8080835
:101CC0000810E000203F202020100F0008F888882E
:101CD000E8081000203F20202320180008F88888FA
:101CE000E8081000203F200003000000C030080872
:101CF0000838000007182020221E020008F80800FB
:101D00000008F808203F210101213F20000808F8C1
:101D1000080800000020203F2020000000000808E4
:101D2000F8080800C08080807F00000008F888C0A4
:101D300028180800203F20012638200008F8080055
:101D400000000000203F20202020300008F8F8008C
:101D5000F8F80800203F003F003F200008F830C09E
:101D60000008F808203F200007183F00E01008088E
:101D70000810E0000F10202020100F0008F80808BD
:101D80000808F000203F210101010000E0100808D0
:101D90000810E0000F18242438504F0008F88888F5
:101DA00088887000203F2000030C302000708808D5
:101DB000080838000038202121221C00180808F8E3
:101DC000080818000000203F2000000008F8080064
:101DD0000008F808001F202020201F000878880035
:101DE00000C83808000007380E010000F80800F8A5
:101DF0000008F800033C0700073C0300081868804F
:101E00008068180820302C03032C30200838C800C4
:101E1000C83808000000203F200000001008080813
:101E2000C83808002038262120201800000000FEB5
:101E3000020202000000007F40404000000C30C061
:101E400000000000000000010638C000000202028D
:101E5000FE000000004040407F000000000004023F
:101E6000020204000000000000000000000000006A
:101E7000000000008080808080808080000202045A
:101E80000000000000000000000000000000808052
:101E9000808000000019242222223F2008F80080C0
:101EA00080000000003F112020110E000000008083
:101EB00080800000000E1120202011000000008012
:101EC0008088F800000E112020103F200000808044
:101ED00080800000001F222222221300008080F058
:101EE000888888180020203F202000000000808083
:101EF00080808000006B94949493600008F80080C8
:101F000080800000203F210000203F200080989822
:101F1000000000000020203F202000000000008082
:101F20009898000000C08080807F000008F80000C2
:101F300080808000203F24022D302000000808F817
:101F4000000000000020203F2020000080808080D2
:101F500080808000203F20003F20003F8080008064
:101F600080800000203F210000203F200000808072
:101F700080800000001F202020201F008080008023
:101F80008000000080FFA12020110E0000000080D2
:101F900080808000000E112020A0FF8080808000C3
:101FA0008080800020203F212000010000008080F0
:101FB000808080000033242424241900008080E0E5
:101FC000808000000000001F2020000080800000B2
:101FD00000808000001F202020103F208080800093
:101FE0000080808000010E300806010080800080A3
:101FF000008080800F300C030C300F0000808000C8
:10200000808080000020312E0E31200080808000F2
:102010000080808080818E701806010000808080A2
:10202000808080000021302C222130000000000040
:10203000807C020200000000003F404000000000E1
:10204000FF00000000000000FF0000000002027C12
:10205000800000000040403F000000000006010139
:102060000202040400000000000000008C200008B0
:102070000000002020000000BC180008AC20000870
:102080002000002000040000CC1800080000000020
:1020900001020304010203040607080902040608FA
:0C20A00000000000000000000000000034
:04000005080000ED02
:00000001FF
