:020000040800F2
:1000000020040020050100082D0700086B060008E9
:100010006F06000891040008991400080000000011
:10002000000000000000000000000000150D0008A6
:10003000E904000800000000FD0B0008DD0E0008C8
:100040001F0100081F0100081F0100081F01000810
:100050001F0100081F0100081F0100081F01000800
:100060001F0100081F0100081F0100081F010008F0
:100070001F0100081F0100081F0100081F010008E0
:100080001F0100081F0100081F0100081F010008D0
:100090001F0100081F0100081F0100081F010008C0
:1000A0001F0100081F0100081F0100081F010008B0
:1000B0001F0100081F0100081F0100081F010008A0
:1000C0001F0100081F0100081F0100081F01000890
:1000D0001F010008CD1100081F0100081F010008C2
:1000E0001F0100081F0100081F010008DFF810D0E1
:1000F00000F072F900480047BD140008AFF300801B
:10010000200400200648804706480047FEE7FEE737
:10011000FEE7FEE7FEE7FEE7FEE7FEE7FEE7FEE7B7
:10012000E10E0008ED0000082DE9FE4F81EA03040E
:1001300004F0004421F0004100944FF0000B23F044
:10014000004350EA01045ED052EA03045BD0C3F3DB
:100150000A54C1F30A552C44A4F2F3340194A0FBD1
:100160000254C1F3130141F48011C3F3130343F4A8
:10017000801301FB024400FB034E840A970A44EA01
:10018000815447EA8357A4FB076802958D0A05FB53
:1001900007854FEA932C04FB0C542705029D4FEA78
:1001A000065847EA1637B5EB08056EEB070C870EC5
:1001B000920E47EA811742EA8312A7FB0201B6EBCF
:1001C0000B0164EB00042B0D43EA0C335E1844EB87
:1001D0001C50DA465146E7FB0201C5F313044FEA0F
:1001E0000B3343EA14534FEA0432019C43EA0603FB
:1001F000A4F10C040294009CCDE900B400F09EF838
:1002000003B0BDE8F08F00200146F9E70EB540F2DB
:10021000334102910021CDE900110A460B4600F05E
:100220008DF803B000BD20F00040C10DC0F31600F2
:1002300040F400007F2901DA00207047962903DC92
:10024000C1F19601C840704796398840704701F067
:10025000004330B421F0004150EA010206D00A0DFB
:10026000A2F56072C1F31301002A02DC30BC002049
:100270007047440F44EAC104C100E01830BC00EBF1
:10028000C25000F015B80000002801DBC0F10040AA
:10029000002901DBC1F1004181427047002801DBE8
:1002A000C0F10040002901DBC1F1004188427047E4
:1002B0000029A8BF7047401C490008BF20F001007A
:1002C000704710B4B0FA80FC00FA0CF050EA010458
:1002D00004BF10BC704749B1CCF1200421FA04F4EA
:1002E00011FA0CF118BF012121430843A3EB0C01C3
:1002F000CB1D4FEA00614FEA102042BF002010BC26
:10030000704700EBC35010440029A4BF10BC7047D5
:10031000401C490008BF20F0010010BC704710B518
:10032000141E73F1000408DA401C41F10001921818
:100330005B411A4301D120F0010010BD2DE9F04DC1
:1003400092469B4611B1B1FA81F202E0B0FA80F216
:100350002032904600F052F804460F4640EA0A0068
:1003600041EA0B0153465A46084313D0114653EA5B
:10037000010019D0C8F14002504600F04EF8054681
:100380000E4650465946424600F038F8084305D01C
:10039000012004E020463946BDE8F08D00200543E9
:1003A00046EAE0762C4337430A986305E40AA0EB5B
:1003B00008000022FD0A44EA47540A3002D5002012
:1003C0000146E9E7010510196941DDE90845001911
:1003D0006941BDE8F04DA2E7064C074D06E0E06834
:1003E00040F0010394E8070098471034AC42F6D37C
:1003F000FFF780FE201D0008401D0008202A04DBB6
:10040000203A00FA02F1002070479140C2F1200327
:1004100020FA03F3194390407047202A04DB203A66
:1004200021FA02F00021704721FA02F3D040C2F114
:1004300020029140084319467047000008B5012189
:10044000082000F0EDFB10208DF803000120ADF82E
:10045000000003208DF802006946044800F068F8A7
:100460000121024800F0FAF808BD0000000C01402C
:1004700010B50121014800F0EFF810BD000C01405B
:1004800010B50121014800F0E9F810BD000C014051
:1004900000BFFEE710B5322000F008F9322000F06E
:1004A00025F910BD10B56FF0310000F0FFF86FF0C6
:1004B000310000F01BF910BD10B5002000F0F6F877
:1004C000322000F013F910BD10B5322000F0EEF824
:1004D000002000F00BF910BD10B5002000F0E6F888
:1004E000002000F003F910BD704700B5034603E09B
:1004F0004FF47A7000F005F8181EA3F10103F7D14C
:1005000000BD00EBC001C9004FF0E02251610021A5
:1005100091610521116100BF4FF0E021096901F4EB
:1005200080310029F8D004214FF0E022116170479A
:100530002DE9F0410246002500260020002300247A
:10054000002791F803C00CF00F0591F803C00CF0E0
:10055000100CBCF1000F03D091F802C04CEA050565
:1005600091F800C0BCF1000F31D0146800202BE0DE
:100570004FF0010C0CFA00F3B1F800C00CEA0306CE
:100580009E4220D183004FF00F0C0CFA03F7BC43BE
:1005900005FA03FC4CEA040491F803C0BCF1280FEF
:1005A00006D14FF0010C0CFA00FCC2F814C00AE0AE
:1005B00091F803C0BCF1480F05D14FF0010C0CFAC3
:1005C00000FCC2F810C0401C0828D1D31460B1F858
:1005D00000C0BCF1FF0F34DD546800202EE000F1B4
:1005E000080C4FF0010808FA0CF3B1F800C00CEA4F
:1005F00003069E4221D183004FF00F0C0CFA03F743
:10060000BC4305FA03FC4CEA040491F803C0BCF1B6
:10061000280F05D100F1080C08FA0CF8C2F8148074
:1006200091F803C0BCF1480F07D100F1080C4FF05E
:10063000010808FA0CF8C2F81080401C0828CED334
:100640005460BDE8F0810246002093680B400BB176
:10065000012000E000207047416170470161704750
:100660000AB1016100E04161704700BFFEE700BFD1
:10067000FEE7000008B50121042000F0D1FA1020A7
:100680008DF803003C20ADF8000003208DF8020037
:1006900069460548FFF74CFF3C210348FFF7DCFFA4
:1006A00000F04EFA08BD00000008014010B50446F5
:1006B000002C0BDB04210C48FFF7D0FF08210A486F
:1006C000FFF7CAFFA0B200F089FA0BE00821064844
:1006D000FFF7C4FF04210448FFF7BEFF614288B260
:1006E00000F07CFA10BD00000008014010B504467F
:1006F000002C0BDB20210C48FFF7B0FF10210A482B
:10070000FFF7AAFFA0B200F071FA0BE01021064833
:10071000FFF7A4FF20210448FFF79EFF614288B243
:1007200000F064FA10BD00000008014070470000AE
:1007300070B5002100230F22C47804B3154C24683F
:1007400004F4E064C4F5E064210AC1F10403CA4082
:10075000447804FA03F184781440214309010E4CD3
:100760000678A155047804F01F050124AC400578F3
:100770006D11AD0005F1E025C5F8004109E00478F0
:1007800004F01F050124AC40044D0678761145F8AD
:10079000264070BD0CED00E000E400E080E100E0E8
:1007A00002490143024A1160704700000000FA0547
:1007B0000CED00E070B500240EE00021204600F0B2
:1007C000F4F8002504E0002000F0AAF9681CC5B286
:1007D000802DF8DB601CC4B2082CEEDB70BD00007D
:1007E00008B50121082000F01BFA14208DF8030041
:1007F00003208DF802004FF48070ADF800006946C8
:100800000A48FFF795FE4FF40070ADF80000694606
:100810000648FFF78DFE012211020448FFF720FF72
:10082000012251020148FFF71BFF08BD000C0140E7
:1008300070B50546002419E080202041284008B109
:10084000012000E0002002464FF400710E48FFF73F
:1008500007FF012211020C48FFF702FF00224FF4AC
:1008600080710948FFF7FCFE601CC4B2082CE3DB72
:10087000012211020448FFF7F3FE00224FF48071B9
:100880000148FFF7EDFE70BD000C014010B50122DC
:1008900051020A48FFF7E4FE012211020748FFF760
:1008A000DFFE00224FF400710448FFF7D9FE00225A
:1008B0004FF480710148FFF7D3FE10BD000C0140DA
:1008C00010B500224FF400710648FFF7C9FE01225F
:1008D00011020448FFF7C4FE012251020148FFF74C
:1008E000BFFE10BD000C014070B5002406E00025DD
:1008F00000E06D1CB5F57A7FFBD3641CB4F57A7FFC
:10090000F5D3FFF76DFFAE2000F0FAF8D52000F028
:10091000F7F8802000F0F4F8A82000F0F1F83F206C
:1009200000F0EEF8D32000F0EBF8002000F0E8F83B
:10093000402000F0E5F8A12000F0E2F8C82000F027
:10094000DFF8DA2000F0DCF8122000F0D9F881207E
:1009500000F0D6F8CF2000F0D3F8D92000F0D0F87E
:10096000F12000F0CDF8DB2000F0CAF8302000F0D4
:10097000C7F8A42000F0C4F8A62000F0C1F88D202C
:1009800000F0BEF8142000F0BBF8AF2000F0B8F87B
:10099000FFF710FF70BD10B50246012000E0504384
:1009A0000B1EA1F10101FAD110BD70B505460C4630
:1009B00045F0B00000F0A4F8102141EA141000F056
:1009C0009FF804F00F0000F09BF870BD2DE9F04196
:1009D00005460E461746721ED206110E6A1E5206B4
:1009E000100EFFF7E2FF002409E0A7F12001134AEF
:1009F00002EB0111085D00F093F8601CC4B2082CF2
:100A0000F3DB721ED206110E6A1E012303EB4202B3
:100A1000D0B2FFF7CAFF00240BE0A7F12001074A7C
:100A200002EB011204F10801505C00F079F8601C3F
:100A3000C4B2082CF1DBBDE8F081000030170008DB
:100A40002DE9F04781460E4690461F4600241DE0E2
:100A5000381B411E1020FFF79EFFB8FBF0F000F09E
:100A60000F050A2D08DA05F13000C2B23019C1B203
:100A70004846FFF7ABFF07E005F13700C2B2301977
:100A8000C1B24846FFF7A2FF601CC4B2BC42DFDB24
:100A9000BDE8F0872DE9F04780460E4617461D4613
:100AA000002415E0281B411E0A20FFF774FFB7FB46
:100AB000F0F00A21B0FBF1F201FB120000F1300965
:100AC0003019C1B24A464046FFF780FF601CC4B2ED
:100AD000AC42E7DBBDE8F0872DE9F04107460E4662
:100AE0001546002407E02A5D3019C1B23846FFF7E9
:100AF0006DFF601CC4B2285D0028F4D1BDE8F08110
:100B000010B50446FFF7C2FE7820FFF791FE0020E3
:100B1000FFF78EFE2046FFF78BFEFFF7D1FE10BDDC
:100B200010B50446FFF7B2FE7820FFF781FE4020A3
:100B3000FFF77EFE2046FFF77BFEFFF7C1FE10BDEC
:100B400000B589B00121084600F05AF801210420BF
:100B500000F066F818208DF823000320ADF820007F
:100B60008DF8220008A91C48FFF7E2FC4FF08040F6
:100B700000F025FA0020ADF81A00ADF81600632049
:100B8000ADF818004720ADF8140000208DF81C00C7
:100B900005A94FF0804000F0C7FA01A800F0B4FAB0
:100BA0006020ADF804000020ADF80C000120ADF885
:100BB00006000020ADF80A0001A94FF0804000F0C7
:100BC00005FA01A94FF0804000F04CFA0121880796
:100BD00000F0E6F909B000BD0008014010B5044678
:100BE00021464FF0804000F099FA10BD10B5044640
:100BF00021464FF0804000F093FA10BD704700008E
:100C000029B1064AD2690243044BDA6104E0034A7F
:100C1000D2698243014BDA61704700000010024044
:100C200029B1064A92690243044B9A6104E0034ADF
:100C300092698243014B9A617047000000100240A4
:100C400030B500210022002400232D4D6D6805F0F1
:100C50000C0121B1042905D0082923D105E0294D33
:100C6000056022E0274D05601FE0254D6D6805F405
:100C70007012234D6D6805F48034022505EB924215
:100C80001CB9214D554305600BE01D4D6D6805F401
:100C900000351DB11C4D5543056002E0194D55430B
:100CA000056002E0174D056000BF00BF144D6D6880
:100CB00005F0F0010909154D6B5C0568DD404560E4
:100CC0000F4D6D6805F4E061090A104D6B5C4568D5
:100CD000DD4085600A4D6D6805F46051C90A0B4D11
:100CE0006B5C4568DD40C560054D6D6805F44041AD
:100CF000890B074D6B5CC568B5FBF3F5056130BD2D
:100D00000010024000127A0000093D00000000209F
:100D10001000002070470000014800787047000074
:100D2000140000200448007820B100200249087017
:100D3000012070470020FCE71500002000B587B0B7
:100D400001218803FFF76CFF01210420FFF768FFF2
:100D500018208DF81B004FF40070ADF81800032028
:100D60008DF81A0006A92148FFF7E2FB48208DF80C
:100D70001B004FF48060ADF8180003208DF81A00B6
:100D800006A91A48FFF7D4FB4FF416500290002032
:100D9000ADF814000420ADF812000020ADF81000EA
:100DA000ADF80E00ADF80C0002A9114800F078FA79
:100DB000012240F225510E4800F04CFA4FF4A06099
:100DC000FFF7EEFC25208DF8040001208DF80700C8
:100DD0008DF805008DF8060001A8FFF7A9FC012198
:100DE000034800F01EFA07B000BD000000080140F3
:100DF0000038014010B500F001F810BD0CB500201E
:100E0000019000903348006840F480303149086018
:100E100000BF3048006800F4003000900198401C8A
:100E20000190009818B90198B0F5A06FF1D1294848
:100E3000006800F4003010B10120009001E00020B3
:100E400000900098012843D12348006840F010002A
:100E5000214908600846006820F003000860084641
:100E6000006840F0020008601A484068194948606C
:100E70000846406848600846406840F48060486022
:100E80000846406820F47C1048600846406840F4FA
:100E9000E81048600846006840F08070086000BFB5
:100EA0000C48006800F000700028F9D0094840683C
:100EB00020F00300074948600846406840F00200FF
:100EC000486000BF0348406800F00C000828F9D1D2
:100ED0000CBD0000001002400020024070470000DE
:100EE00010B51348006840F0010011490860084639
:100EF0004068104908400E494860084600680E499D
:100F000008400B4908600846006820F4802008600B
:100F10000846406820F4FE0048604FF41F008860D7
:100F2000FFF768FF4FF000600449086010BD000043
:100F3000001002400000FFF8FFFFF6FE08ED00E0A1
:100F400010B54FF480510348FFF77DFB044620465F
:100F500010BD0000000C014010B54FF400510348D3
:100F6000FFF771FB0446204610BD0000000C014055
:100F700010B54FF480410348FFF765FB0446204657
:100F800010BD0000000C014010B54FF400410348B3
:100F9000FFF759FB0446204610BD0000000C01403D
:100FA00021B1028842F00102028004E002884FF67B
:100FB000FE731A40028070470146888C7047018991
:100FC0004FF6F872114001817047000070B500249F
:100FD00000220023058C4FF6FE7635400584028CF6
:100FE0008388048B4FF68F752C40B51E2C400D88DE
:100FF0002C43751E2A400D892A434D882A43144DDF
:10100000A8420BD0134DA84208D0134DA84205D0DA
:10101000124DA84202D0124DA84213D14FF6F775D7
:101020002A404D892A434FF6FB752A408D882A4372
:101030004FF6FF652B404FF6FF552B408D892B4314
:10104000CD892B4383800483CD888586028470BD3F
:10105000002C0140003401400040014000440140A8
:101060000048014070B5002400220023058C4FF693
:10107000EF7635400584028C8388048B48F6FF7533
:101080002C404FF6FF452C400D884FF6FF7606EAC0
:1010900005252C434FF6DF752A400D8906EA051514
:1010A0002A434D8806EA05152A43154DA84202D069
:1010B000144DA8421DD14FF67F752A404D894FF639
:1010C000FF7606EA05152A434FF6BF752A408D883C
:1010D00006EA05152A434FF6FF352B404FF2FF7500
:1010E0002B408D8906EA85052B43CD8906EA8505C7
:1010F0002B4383800483CD880587028470BD000064
:10110000002C014000340140002101804180818099
:10111000C180018141818181C18170478186704791
:101120000187704781847047002202881D4B9842D6
:101130000ED01D4B98420BD0B0F1804F08D01B4B06
:10114000984205D01A4B984202D01A4B984204D1CB
:101150004FF68F731A404B881A43174B984207D0AB
:10116000164B984204D04FF6FF431A40CB881A43DF
:1011700002808B8883850B8803850A4B98420BD0AD
:10118000094B984208D00E4B984205D00D4B98421F
:1011900002D00D4B984201D10B7A03860123838242
:1011A00070470000002C0140003401400004004062
:1011B00000080040000C00400010004000140040F7
:1011C00000400140004401400048014010B520218A
:1011D000094800F032F8012807D1074800F0CCF8A0
:1011E0000649087001200649087040F2255102485E
:1011F00000F008F810BD0000003801401400002085
:101200001500002010B50022002340F66A14A14208
:1012100000D100BF0A1201249440A3B2DC43048031
:1012200010BD21B1828942F40052828104E082899A
:101230004DF6FF731A408281704702460020B1F5D7
:10124000007F00D100BF13880B400BB1012000E0EC
:1012500000207047F0B5034600240026002500203A
:1012600040F66A17B94200D100BF1846C1F34214D4
:1012700001F01F06012707FA06F5012C01D10C30F9
:1012800004E0022C01D1103000E014301AB10768DC
:101290002F43076002E00768AF430760F0BD00001E
:1012A0002DE9F04786B005460E460024A24600BF51
:1012B000A1460027B08900B100BF2F462C8A4CF60A
:1012C000FF700440F08804432C82AC894EF6F31082
:1012D0000440B08831890843718908430443AC81D4
:1012E000AC8A4FF6FF400440B0890443AC8201A8A9
:1012F000FFF7A6FC1F48874202D1DDF810A001E0ED
:10130000DDF80CA0A88900F4004040B10AEBCA0047
:1013100000EB0A1031684900B0FBF1F807E00AEB76
:10132000CA0000EB0A1031688900B0FBF1F86420B4
:10133000B8FBF0F004012009642101FB1089A889A1
:1013400000F4004040B1322000EBC900B0FBF1F0E6
:1013500000F00700044308E0322000EB091064218C
:10136000B0FBF1F000F00F0004432C8106B0BDE8A3
:10137000F08700000038014001468888C0F308006B
:10138000704700002DE9F0474FF400611D48FFF75A
:1013900065F91420FFF7B5F84FF400611948FFF71D
:1013A0005BF900BF4FF480611648FFF74CF9002845
:1013B000F8D001211448FFF7F3FD00BF4FF480611E
:1013C0001048FFF740F90128F8D000210E48FFF738
:1013D000E7FD0D48FFF7F0FD814600210A48FFF7C1
:1013E000A1FE4846FEF712FF07464FF03332074B87
:1013F000FEF79AFE0546FEF72AFF04462046BDE8A2
:10140000F0870000000C0140000400403333FB3F34
:101410001FB501210820FFF703FC01210220FFF77F
:10142000EFFB10208DF80F00C001ADF80C00032079
:101430008DF80E0003A91648FFF77AF848208DF8BA
:101440000F004FF48060ADF80C0003208DF80E0003
:1014500003A90F48FFF76CF80E48FFF7B0FD002016
:10146000ADF80600ADF8020042F20F70ADF80400CE
:1014700041F61F40ADF8000000208DF808006946D5
:101480000448FFF751FE00210248FFF789FD1FBD08
:10149000000C01400004004000BFFEE702E008C865
:1014A000121F08C1002AFAD170477047002001E0DE
:1014B00001C1121F002AFBD170470000FFF714FA88
:1014C000FFF7D8F8FFF73AFCFFF7A2FFFEF7B6FFE9
:1014D0000020FFF7EBF80020FFF708F989A20121AF
:1014E0000846FFF7F9FA89A201210220FFF7F4FA72
:1014F00088A201210320FFF7EFFA01E1FFF742FF85
:101500008649086008460068FEF78DFE04460423FD
:10151000224608210220FFF7BDFA6420FEF7E5FF0E
:10152000FFF700FC002870D0FFF7F6FB7C4908703D
:1015300002230846027808210120FFF781FA784843
:101540000078DD2812D17748007808B9012000E042
:1015500000207449087008460078012801D1FEF780
:1015600087FF7048007808B9FEF78AFF6C4800785A
:10157000AA2806D0BB2808D0CC280AD0FF2810D132
:101580000BE00120684908700CE0022066490870F1
:1015900008E003206449087004E0042062490870F0
:1015A00000E000BF00BF5E480078112805D15E480A
:1015B0000078012801D1FEF76DFF594800782228F4
:1015C00005D159480078012801D1FEF76BFF544836
:1015D0000078332805D154480078012801D1FEF75E
:1015E0006BFF4F480078442805D14F480078012808
:1015F00001D1FEF769FF4A480078552805D14A48CD
:101600000078012801D1FEF767FF474800780228DB
:101610001AD1410741480068FEF740FE12D84349FD
:101620003E480068FEF730FE0CD8FEF755FF4FF439
:10163000FA70FEF75AFFFEF747FF40F6C410FEF7B8
:1016400054FF01E0FEF726FF3748007803284ED10B
:10165000FFF776FC0646FFF77FFC0746FFF788FC9E
:101660000446FFF791FC0546012E05D1012F03D159
:1016700014B90DB9FEF70EFF012C07D135B96FF083
:101680001800FFF713F83220FFF730F844B9012DA6
:1016900006D13220FFF70AF86FF01800FFF726F89E
:1016A00016B10FB104B13DB916B90FB904B90DB1F6
:1016B000012000E0002008B9FEF70EFF01233246AA
:1016C00008210320FFF7E6F901233A460A21032007
:1016D000FFF7E0F9012322460C210320FFF7DAF996
:1016E00001232A460E210320FFF7D4F900BF0E483C
:1016F0000078042804D1FEF7EFFE00200A490870A4
:10170000FCE600005278446174613A004C656E67F3
:1017100074683A0054435254464C3A001C0000206E
:10172000180000201A000020190000200000A0412D
:1017300000000000000000000000000000000000A9
:10174000000000F80000000000000033300000003E
:1017500000100C06100C0600000000000000000045
:1017600040C07840C0784000043F04043F040400B7
:10177000007088FC08300000001820FF211E0000C7
:10178000F008F000E018000000211C031E211E00DC
:1017900000F00888700000001E2123241927211062
:1017A00010160E0000000000000000000000000005
:1017B000000000E0180402000000000718204000AC
:1017C00000020418E000000000402018070000009C
:1017D000404080F0804040000202010F0102020000
:1017E000000000F0000000000101011F01010100E4
:1017F000000000000000000080B070000000000049
:1018000000000000000000000001010101010101D1
:101810000000000000000000003030000000000068
:10182000000000008060180400601806010000003D
:1018300000E010080810E000000F102020100F003A
:10184000001010F8000000000020203F20200000C1
:101850000070080808887000003028242221300019
:1018600000300888884830000018202020110E0021
:101870000000C02010F8000000070424243F2400CA
:1018800000F80888880808000019212020110E009F
:1018900000E0108888180000000F112020110E00B1
:1018A00000380808C83808000000003F00000000A9
:1018B0000070880808887000001C222121221C006A
:1018C00000E010080810E0000000312222110F0093
:1018D000000000C0C0000000000000303000000028
:1018E0000000008000000000000080600000000098
:1018F00000008040201008000001020408102000B1
:1019000040404040404040000404040404040400FB
:101910000008102040800000002010080402010090
:10192000007048080808F000000000303601000090
:10193000C030C828E810E0000718272423140B0043
:101940000000C038E0000000203C230202273820BD
:1019500008F8888888700000203F202020110E00A1
:10196000C030080808083800071820202010080098
:1019700008F808080810E000203F202020100F0081
:1019800008F88888E8081000203F2020232018004D
:1019900008F88888E8081000203F200003000000B5
:1019A000C03008080838000007182020221E020056
:1019B00008F808000008F808203F210101213F2015
:1019C000000808F8080800000020203F2020000040
:1019D00000000808F8080800C08080807F00000030
:1019E00008F888C028180800203F20012638200069
:1019F00008F8080000000000203F202020203000D0
:101A000008F8F800F8F80800203F003F003F2000E9
:101A100008F830C00008F808203F200007183F00F1
:101A2000E01008080810E0000F10202020100F0020
:101A300008F808080808F000203F21010101000013
:101A4000E01008080810E0000F18242438504F0058
:101A500008F8888888887000203F2000030C302018
:101A600000708808080838000038202121221C0056
:101A7000180808F8080818000000203F200000009F
:101A800008F808000008F808001F202020201F0088
:101A90000878880000C83808000007380E010000E8
:101AA000F80800F80008F800033C0700073C0300B2
:101AB000081868808068180820302C03032C302018
:101AC0000838C800C83808000000203F2000000087
:101AD00010080808C83808002038262120201800DF
:101AE000000000FE020202000000007F40404000B3
:101AF000000C30C000000000000000010638C000EB
:101B000000020202FE000000004040407F00000092
:101B100000000402020204000000000000000000B7
:101B200000000000000000008080808080808080B5
:101B3000000202040000000000000000000000009D
:101B400000008080808000000019242222223F2093
:101B500008F8008080000000003F112020110E00D6
:101B60000000008080800000000E11202020110065
:101B7000000000808088F800000E112020103F2017
:101B80000000808080800000001F2222222213009B
:101B9000008080F0888888180020203F20200000E6
:101BA0000000808080808000006B9494949360009B
:101BB00008F8008080800000203F210000203F20A6
:101BC00000809898000000000020203F20200000A6
:101BD000000000809898000000C08080807F000096
:101BE00008F8000080808000203F24022D30200073
:101BF000000808F8000000000020203F202000001E
:101C00008080808080808000203F20003F20003F37
:101C10008080008080800000203F210000203F2045
:101C20000000808080800000001F202020201F00F6
:101C3000808000808000000080FFA12020110E0025
:101C40000000008080808000000E112020A0FF8016
:101C5000808080008080800020203F2120000100C3
:101C60000000808080808000003324242424190018
:101C7000008080E0808000000000001F2020000025
:101C80008080000000808000001F202020103F2066
:101C9000808080000080808000010E3008060100F6
:101CA00080800080008080800F300C030C300F009B
:101CB00000808000808080000020312E0E312000C6
:101CC000808080000080808080818E7018060100F6
:101CD00000808080808080000021302C2221300014
:101CE00000000000807C020200000000003F404035
:101CF00000000000FF00000000000000FF000000E6
:101D00000002027C800000000040403F0000000014
:101D100000060101020204040000000000000000AF
:101D2000401D000800000020200000009C14000856
:101D3000601D00082000002000040000AC14000812
:101D40000000000001020304010203040607080961
:101D5000020406080000000000000000000000006F
:04000005080000ED02
:00000001FF
